:020000040000FA
:020000003528A1
:080008000000A4000B181428ED
:10001000061C1F280130A50725190F281F28A51C1D
:100020001F280130A5001F28061A1F280430A60724
:10003000261A1B281F28A61D1F280430A6002408E6
:100040000B108B1009002308880008002608A20066
:10005000C830A100E630A00000000000A00B2C2852
:10006000A10B2A28A20B282808008316113086002D
:10007000003088008312113086008B170B170B1687
:100080008B100B108B15003088000030A30001305E
:10009000A5000430A6000030A70000002320262081
:1000A00025082307A300A31A562858282030A302A6
:0600B00023202620502849
:02400E00313748
:00000001FF
